S01600004353313232412050726F6A6563742E73726563AB
S113000045C0000060C000005EC000005CC000008D
S11300105AC0000058C0000056C0000054C0000080
S113002052C0000050C000004EC000004CC0000090
S11300304AC00000A1C0000046C0000044C0000047
S113004042C0000040C000003EC000001CC10000CF
S11300503AC0000038C0000036C0000034C00000C0
S113006032C0000030C000002EC000002CC00000D0
S11300702AC0000028C0000026C0000024C00000E0
S113008022C0000020C000001EC0000011241FBEBA
S1130090CFEFD0E4DEBFCDBF11E0A0E0B1E0E2EDF0
S11300A0F2E000E00BBF02C007900D92AA30B10746
S11300B0D9F721E0AAE0B1E001C01D92A031B20756
S11300C0E1F7F0D004C19CCF181619065CF008952E
S11300D0000021503109E1F74F5F5F4F8417950706
S11300E019F4089540E050E027E033E0F1CF109890
S11300F08BB9119A0000119882E090E0E5CF089541
S113010081E0F5CF089584E690E0DEDF88E3EFDF59
S113011086E0EDDF8FE0EBDF81E0E9DF8AE090E06D
S1130120D3CF0895109A8BB9119A0000119881E0E9
S113013090E0CACF0895813118F48158D8CF08953A
S11301408155D5CF08950F931F93CF93DF93182F25
S1130150EB01D6DF8881882351F001E0010F812F64
S1130160EADF8991DFDF102F88818111F6CFDF91DB
S1130170CF911F910F9108951F920F920FB60F9276
S113018011248F939F93AF93BF9380910B01909110
S11301900C01A0910D01B0910E010197A109B109C3
S11301A080930B0190930C01A0930D01B0930E0169
S11301B0892B8A2B8B2B99F481E080930F018091FA
S11301C0000190910101A0910201B091030180937B
S11301D00B0190930C01A0930D01B0930E01BF91FC
S11301E0AF919F918F910F900FBE0F901F90189514
S11301F08EBD0DB407FEFDCF0895789480E484B9D4
S113020080EC8CBD0895CF93DF9300D000D0CDB7A0
S1130210DEB71C822DEC829F912D11249695969524
S11302209695492F440F342F330F330F340F482F33
S1130230431B342F305D3B83929F212D112426953F
S113024026952695220F322F330F330F230F921B3F
S1130250905D9A8399E2899F812D112482958F70F4
S1130260805D8983BE016F5F7F4F81E06CDF0F90FB
S11302700F900F900F90DF91CF9108950DB407FE6A
S1130280FDCF8EB508951F920F920FB60F921124D1
S11302908F9381E080930A018F910F900FBE0F908E
S11302A01F9018958FEF8AB981B9A7DF2CDF64E01E
S11302B071E081E048DF80910A018823E1F3DEDF09
S11302C0C82FA1DF8C2F94DF10920A01F4CFF89489
S10502D0FFCF5A
S10D02D2010000007465737400005D
S9030000FC
