S01600004353313232412050726F6A6563742E73726563AB
S113000045C0000060C000005EC000005CC000008D
S11300105AC0000058C0000056C0000054C0000080
S113002052C0000050C000004EC000004CC0000090
S11300304AC00000A1C0000046C0000044C0000047
S113004042C0000040C000003EC00000DBC0000011
S11300503AC0000038C0000036C0000034C00000C0
S113006032C0000030C000002EC000002CC00000D0
S11300702AC0000028C0000026C0000024C00000E0
S113008022C0000020C000001EC0000011241FBEBA
S1130090CFEFD0E4DEBFCDBF11E0A0E0B1E0EAE0F5
S11300A0F3E000E00BBF02C007900D92AA30B10745
S11300B0D9F721E0AAE0B1E001C01D92A231B20754
S11300C0E1F703D120C19CCF181619065CF00895FE
S11300D0000021503109E1F74F5F5F4F8417950706
S11300E019F4089540E050E027E033E0F1CF109890
S11300F08BB9119A0000119882E090E0E5CF089541
S113010081E0F5CF089584E690E0DEDF88E3EFDF59
S113011086E0EDDF8FE0EBDF81E0E9DF8AE090E06D
S1130120D3CF0895109A8BB9119A0000119881E0E9
S113013090E0CACF0895813118F48158D8CF08953A
S11301408155D5CF08950F931F93CF93DF93182F25
S1130150EB01D6DF8881882351F001E0010F812F64
S1130160EADF8991DFDF102F88818111F6CFDF91DB
S1130170CF911F910F9108951F920F920FB60F9276
S113018011248F939F93AF93BF9380910D0190910E
S11301900E01A0910F01B09110010197A109B109BD
S11301A080930D0190930E01A0930F01B093100161
S11301B0892B8A2B8B2B99F481E0809311018091F8
S11301C0000190910101A0910201B091030180937B
S11301D00D0190930E01A0930F01B0931001BF91F4
S11301E0AF919F918F910F900FBE0F901F90189514
S11301F0789480E484B98CBD08950DB407FEFDCFD6
S11302008EB508951F920F920FB60F9211240BB65C
S11302100F922F933F934F935F936F937F938F939B
S11302209F93AF93BF93EF93FF9381E080930C016F
S1130230E0910A01F0910B01309709F00995FF91C3
S1130240EF91BF91AF919F918F917F916F915F914A
S11302504F913F912F910F900BBE0F900FBE0F90B7
S11302601F901895FC018FEF8083118212821382F4
S11302701482158216821782DF01A85FB74F119688
S11302801C921E9212961D921C92E45FF74F1082EC
S11302900895CF93DF93EC01FC01E45FF74F808175
S11302A0882351F0813071F4A8DF10920C01C45FEF
S11302B0D74F82E0888306C0CE01D4DFC45FD74F16
S11302C081E08883DF91CF910895CF93DF93CDB7F9
S11302D0DEB7C552D8400FB6F894DEBF0FBECDBF0F
S11302E08FEF8AB987B981B98FE088B981DF0BDFD5
S11302F064E071E081E027DFCE010196B3DFCE0137
S10D03000196C7DFFCCFF894FFCF8D
S10D030A0100000074657374000024
S9030000FC
